:020000040000fa
:080000000002040000000000f2
:020000040000fa
:0400080016030000db
:020000040000fa
:04000c0028030000c5
:020000040000fa
:0400100040030000a9
:020000040000fa
:040014001e030000c7
:020000040000fa
:0400180030030000b1
:020000040000fa
:04001c0038030000a5
:020000040000fa
:040020004803000091
:020000040000fa
:04002400e0040000f4
:020000040000fa
:04002800e0040000f0
:020000040000fa
:04002c00e0040000ec
:020000040000fa
:04003000e0040000e8
:020000040000fa
:04003400e0040000e4
:020000040000fa
:04003800e0040000e0
:020000040000fa
:04003c00e0040000dc
:020000040000fa
:04004000e0040000d8
:020000040000fa
:04004400e0040000d4
:020000040000fa
:04004800aa04000006
:020000040000fa
:04004c00e0040000cc
:020000040000fa
:04005000e0040000c8
:020000040000fa
:04005400ec030000b9
:020000040000fa
:040058008a03000017
:020000040000fa
:04005c00e0040000bc
:020000040000fa
:04006000e0040000b8
:020000040000fa
:04006400e0040000b4
:020000040000fa
:040068008c04000004
:020000040000fa
:04006c006e0400001e
:020000040000fa
:04007000e0040000a8
:020000040000fa
:04007400e0040000a4
:020000040000fa
:04007800e0040000a0
:020000040000fa
:04007c00e00400009c
:020000040000fa
:04008000e004000098
:020000040000fa
:04008400e004000094
:020000040000fa
:04008800e004000090
:020000040000fa
:04008c00e00400008c
:020000040000fa
:04009000e004000088
:020000040000fa
:04009400e004000084
:020000040000fa
:04009800e004000080
:020000040000fa
:04009c00e00400007c
:020000040000fa
:0400a000e004000078
:020000040000fa
:0400a400e004000074
:020000040000fa
:0400a800e004000070
:020000040000fa
:0400ac00e00400006c
:020000040000fa
:0400b000e004000068
:020000040000fa
:0400b400e004000064
:020000040000fa
:0400b800e004000060
:020000040000fa
:0400bc00e00400005c
:020000040000fa
:0400c000e004000058
:020000040000fa
:0400c400e004000054
:020000040000fa
:0400c800e004000050
:020000040000fa
:0400cc00e00400004c
:020000040000fa
:0400d000e004000048
:020000040000fa
:0400d400e004000044
:020000040000fa
:0400d800e004000040
:020000040000fa
:0400dc00e00400003c
:020000040000fa
:0400e000e004000038
:020000040000fa
:0400e400e004000034
:020000040000fa
:0400e800e004000030
:020000040000fa
:0400ec00e00400002c
:020000040000fa
:0400f000e004000028
:020000040000fa
:0400f400e004000024
:020000040000fa
:0400f800e004000020
:020000040000fa
:0400fc00e00400001c
:020000040000fa
:04010000e004000017
:020000040000fa
:04010400e004000013
:020000040000fa
:04010800e00400000f
:020000040000fa
:04010c00e00400000b
:020000040000fa
:04011000e004000007
:020000040000fa
:04011400e004000003
:020000040000fa
:04011800e0040000ff
:020000040000fa
:04011c00e0040000fb
:020000040000fa
:04012000e0040000f7
:020000040000fa
:04012400e0040000f3
:020000040000fa
:04012800e0040000ef
:020000040000fa
:04012c005804000073
:020000040000fa
:04013000e0040000e7
:020000040000fa
:04013400e0040000e3
:020000040000fa
:04013800e0040000df
:020000040000fa
:04013c00e0040000db
:020000040000fa
:04014000e0040000d7
:020000040000fa
:04014400e0040000d3
:020000040000fa
:04014800e0040000cf
:020000040000fa
:04014c00e0040000cb
:020000040000fa
:04015000e0040000c7
:020000040000fa
:04015400e0040000c3
:020000040000fa
:04015800e0040000bf
:020000040000fa
:04015c00e0040000bb
:020000040000fa
:04016000e0040000b7
:020000040000fa
:04016400e0040000b3
:020000040000fa
:04016800e0040000af
:020000040000fa
:04016c00e0040000ab
:020000040000fa
:04017000e0040000a7
:020000040000fa
:04017400e0040000a3
:020000040000fa
:04017800e00400009f
:020000040000fa
:04017c00e00400009b
:020000040000fa
:04018000e004000097
:020000040000fa
:04018400e004000093
:020000040000fa
:04018800e00400008f
:020000040000fa
:04018c00e00400008b
:020000040000fa
:04019000e004000087
:020000040000fa
:04019400e004000083
:020000040000fa
:04019800e00400007f
:020000040000fa
:04019c00e00400007b
:020000040000fa
:0401a000e004000077
:020000040000fa
:0401a400e004000073
:020000040000fa
:0401a800e00400006f
:020000040000fa
:0401ac00e00400006b
:020000040000fa
:0401b000e004000067
:020000040000fa
:0401b400e004000063
:020000040000fa
:0401b800e00400005f
:020000040000fa
:0401bc00e00400005b
:020000040000fa
:0401c000e004000057
:020000040000fa
:0401c400e004000053
:020000040000fa
:0401c800e00400004f
:020000040000fa
:0401cc00e00400004b
:020000040000fa
:0401d000e004000047
:020000040000fa
:0401d400e004000043
:020000040000fa
:0401d800e00400003f
:020000040000fa
:0401dc00e00400003b
:020000040000fa
:0401e000e004000037
:020000040000fa
:0401e400e004000033
:020000040000fa
:0401e800e00400002f
:020000040000fa
:0401ec00e00400002b
:020000040000fa
:0401f000e004000027
:020000040000fa
:0401f400e004000023
:020000040000fa
:0401f800e00400001f
:020000040000fa
:0401fc00e00400001b
:020000040000fa
:04020000e004000016
:020000040000fa
:04020400e004000012
:020000040000fa
:04020800e00400000e
:020000040000fa
:04020c00e00400000a
:020000040000fa
:04021000e004000006
:020000040000fa
:04021400e004000002
:020000040000fa
:04021800e0040000fe
:020000040000fa
:04021c00e0040000fa
:020000040000fa
:04022000e0040000f6
:020000040000fa
:04022400e0040000f2
:020000040000fa
:04022800e0040000ee
:020000040000fa
:04022c00e0040000ea
:020000040000fa
:04023000e0040000e6
:020000040000fa
:04023400e0040000e2
:020000040000fa
:04023800e0040000de
:020000040000fa
:04023c00e0040000da
:020000040000fa
:04024000e0040000d6
:020000040000fa
:04024400e0040000d2
:020000040000fa
:04024800e0040000ce
:020000040000fa
:04024c00e0040000ca
:020000040000fa
:04025000e0040000c6
:020000040000fa
:04025400e0040000c2
:020000040000fa
:04025800e0040000be
:020000040000fa
:04025c00e0040000ba
:020000040000fa
:04026000e0040000b6
:020000040000fa
:04026400e0040000b2
:020000040000fa
:04026800e0040000ae
:020000040000fa
:04026c00e0040000aa
:020000040000fa
:04027000e0040000a6
:020000040000fa
:04027400e0040000a2
:020000040000fa
:04027800e00400009e
:020000040000fa
:04027c00e00400009a
:020000040000fa
:04028000e004000096
:020000040000fa
:04028400e004000092
:020000040000fa
:04028800e00400008e
:020000040000fa
:04028c00e00400008a
:020000040000fa
:04029000e004000086
:020000040000fa
:04029400e004000082
:020000040000fa
:04029800e00400007e
:020000040000fa
:04029c00e00400007a
:020000040000fa
:0402a000e004000076
:020000040000fa
:0402a400e004000072
:020000040000fa
:0402a800e00400006e
:020000040000fa
:0402ac00e00400006a
:020000040000fa
:0402b000e004000066
:020000040000fa
:0402b400e004000062
:020000040000fa
:0402b800e00400005e
:020000040000fa
:0402bc00e00400005a
:020000040000fa
:0402c000e004000056
:020000040000fa
:0402c400e004000052
:020000040000fa
:0402c800e00400004e
:020000040000fa
:0402cc00e00400004a
:020000040000fa
:0402d000e004000046
:020000040000fa
:0402d400e004000042
:020000040000fa
:0402d800e00400003e
:020000040000fa
:0402dc00e00400003a
:020000040000fa
:0402e000e004000036
:020000040000fa
:0402e400e004000032
:020000040000fa
:0402e800e00400002e
:020000040000fa
:0402ec00e00400002a
:020000040000fa
:0402f000e004000026
:020000040000fa
:0402f400e004000022
:020000040000fa
:0402f800e00400001e
:020000040000fa
:0402fc00e00400001a
:020000040000fa
:04030000e004000015
:020000040000fa
:04030400e004000011
:020000040000fa
:04030800e00400000d
:020000040000fa
:04030c00e004000009
:020000040000fa
:04031000e004000005
:020000040000fa
:10040000ef2b21000eff24000e01880000000000e9
:10041000000020000000e000020032000001200087
:100420002002880014000700670107000000e000b8
:1004300003003a002056240001002000020037008b
:100440000000200001002000810f70000100320038
:100450000f000700000020000000e0000200320052
:100460000000020000000000a42a020000000000ba
:100470000040da000000fe00603020000000e000d4
:1004800002003200002020009001880000000600d9
:10049000a1028800800478000000eb001f003700f4
:1004a000e284440054a0b4009905ba00e2844400f8
:1004b00054a0b4009906ba00e284440054a0b400e9
:1004c0000006eb00476fde00fd07b200ae018800ba
:1004d000636ce10003003a000ad801000000eb0061
:1004e0000e003700606ce10008003a00004deb00a0
:1004f0000a05e800020039003420ec000af0a000f0
:100500008b05e900f9ff3e00040037006168e10057
:10051000010032000086eb000b00070019c7ba008b
:100520000e04e0001905ba0003003a000a00e000da
:10053000dbff3a0000000600fe07b200ae028800b2
:100540008a047800f5ff37000cd0a300e20f4d00bd
:100550001c00390089027800354dba000a05e80010
:10056000020039003420ec000af0a0008b05e900fd
:100570000f003200254dba000a05e80002003900dc
:100580003420ec000af0a0008b05e90008003200de
:100590000c00e0000600320015cdba000a05e800a4
:1005a000020039003420ec000af0a0008b05e900bd
:1005b0008984e80054a0b4000b00e000e2ff3a0098
:1005c000000006009902ba00055d78008b05e9007d
:1005d000f7ff3200c82ade00055d78008b05e900d0
:1005e000f3ff32000c00e000f1ff320019ddba0029
:1005f000eeff3700d233040000000000e8300400b2
:10060000000000000631040000000000624a0400ff
:10061000000000003c40040000000000a81304009b
:1006200000000000be070400000000003600f800d3
:10063000c028a9000000eb00e22407003600f80003
:10064000e4240700c048a90010002000dd240700b2
:100650003600f800c068a90020002000d924070057
:100660003600f800c088a90030002000d52407001b
:100670003600f800c0a8a90040002000d1240700df
:100680003600f800c608a90070002000cd2407003d
:100690003600f80021468000001020000080600035
:1006a0000000e00003003200c508a900c0002000df
:1006b000c42407002146800000002800008060005c
:1006c0000000e00003003200c5e8a900800020001f
:1006d000bc2407002146800000022000008060004a
:1006e0000000e00003003200c4a8a9009000200030
:1006f000b424070020468000700060000000e00085
:1007000003003200c488a900a0002000ad24070027
:10071000ffff37003600f800809fbe00829fbe00ba
:10072000849fbe00869fbe000000fa00a082800069
:100730000000e00002003200a08280000000010002
:100740008182800070828000808f500002003a0019
:100750002188a900190037000188a900100037007e
:1007600080828000904078008180fb002111880009
:100770000000e8008082880081828000f02a210049
:10078000808f500002003a00602a21008082880099
:100790008182800070828000808f500006003200cd
:1007a0001111800000202000008060000000e000a7
:1007b000ebff320001003700000000000080fa006b
:1007c0004f03be004f02be004f01be004f00be00ef
:1007d0003600f900004006003600f800809fbe0099
:1007e000829fbe00849fbe00869fbe000000fa006c
:1007f000b08280000000e00002003200b082800081
:10080000000001000168a9001e003700508280002e
:1008100031118000814078000148780051828000c9
:10082000702b2100808f5000090032005082800020
:100830008000e80060828000808f50000400320059
:10084000508280000000e800508288000d003700d0
:1008500051828000702b2100808f500007003a00e9
:1008600061828000f02a2100808f50000300320056
:10087000f02a2100508288000200370010c0b30027
:1008800052f0b70010118000610060000000e0002d
:10089000deff3a000080fa004f03be004f02be00a8
:1008a0004f01be004f00be003600f90000400600b8
:1008b000801f78000000fa001011800062006000c4
:1008c0000000e000010032002222a9000828a9004f
:1008d0000080fa004f007800004006003600f80063
:1008e000809fbe00829fbe00849fbe00869fbe0088
:1008f0000000fa0010838000000001000080fa0070
:100900004f03be004f02be004f01be004f00be00ad
:100910003600f900004006003600f800809fbe0057
:10092000829fbe00849fbe00869fbe000000fa002a
:1009300020838000000001000080fa004f03be0009
:100940004f02be004f01be004f00be003600f9004e
:10095000004006003600f800809fbe00829fbe0067
:10096000849fbe00869fbe000000fa005083800076
:100970000000e0000200320050838000000001000f
:10098000d02b2100104078008040e800d02b2100bf
:1009900001487800c02b210011c0b3000148780045
:1009a0000108a9000080fa004f03be004f02be00fc
:1009b0004f01be004f00be003600f90000400600a7
:1009c0000040da000000fe00000005006022b800d0
:1009d000060220000000d0008180d2000482d200f4
:1009e0008582d2000000a0000202520083825a00d9
:1009f000030031000202420083824a000000a1008d
:100a00000603e900f3ff3a0000000600889fbe00dd
:100a10008a9fbe0030044200b0844a0030054b007b
:100a200090854b006000b1000898be000a90be009f
:100a30000440e10005c8e10006d0e10007d8e1006c
:100a400002003100680040001008e8004f05be00b9
:100a50004f04be0000000600889fbe008a9fbe00b3
:100a6000100478009004900020059000b0059000dc
:100a70000418540005985c0006185d0007985d0096
:100a8000110020000440e10005c8e10006d0e100ab
:100a900007d8e100010039008000eb001088100049
:100aa0004f05be004f04be00000006001200fa0011
:100ab000889fbe008a9fbe008c9fbe00e0b79f004b
:100ac000f1b79f0082bf9f0093bf9f000605be0045
:100ad0000404be000000eb00d0b79f00c0b79f0029
:100ae000b0b79f00a0b79f0090b79f000006eb0033
:100af0005fb19700cfb09700820141003fb09700ef
:100b00000200e00004003d00370007007e8057002f
:100b1000beff070003003700330007007e80570048
:100b2000cdff0700dfb697000d00e0000c00350098
:100b30006fb29700ffb297000fbb97009fbb970063
:100b400010002000010020006011b80000027200b7
:100b50008182720002037300838373001b0007000d
:100b60000c06e80001042000810f5600e0ff3a0067
:100b70000d00e00004003d000802be000a03be00b4
:100b80007e805700a1ff07005fa897000000e000eb
:100b900005003a001fb29700afb297003fb397002d
:100ba000cfb39700090007006fb09700ffb0970020
:100bb0000fb997009fb997004f06be004f05be00c2
:100bc0004f04be000080fa0000000600010007008c
:100bd00000000600a4b79f00b5b79f00c6b79f00ee
:100be000d7b79f00000006004f09de008281710028
:100bf000b3b79f004f01de0081804000828070000b
:100c0000a1b79f008fb097004f09de0000004000a1
:100c10000200700090b79f007fa897004f01de0090
:100c2000818040008280700081b79f000d00070026
:100c30004f3ade000000400004007000f0af9f005b
:100c4000080007000402420085824a0006034b00a8
:100c500087834b00dfff07000802be000a03be00c7
:100c6000000006002fb29700bfb297004fb3970065
:100c7000dfb3970000000600881f780018002000ee
:100c8000881f780089ff07008f87e9004f047800ec
:100c900000000600801feb0084ff07008f87e9003b
:100ca00000000600889fbe008a9fbe00e00f500033
:100cb000e08f5800e00f5900e08f59000c003d0014
:100cc0006044b8006055b8000000540081805c00aa
:100cd00002015d0083815d001800200015000700ff
:100ce00008003d00180007000004eb000500370075
:100cf0000004eb000f00070002003d001200070097
:100d000018002000dcff07000800e00006003200a9
:100d10006022b8006033b8000000520081805a00a1
:100d200002015b0083815b004f05be004f04be00e3
:100d300000000600e00f5200e08f5a00e00f5b0059
:100d4000e08f5b00000006006044b8006055b8000a
:100d50000402540085825c0006035d0087835d0009
:100d600000000600889fbe008a9fbe008c1f78008e
:100d7000e00f5000e08f5800e00f5900e08f59005d
:100d80000d003d006044b8006055b80000005400fc
:100d900081805c0002015d0083815d001c002000f9
:100da0000820e10009a8e1000ab0e1000bb8e10069
:100db0000d003d00080037000006eb00e00f520078
:100dc000e08f5a00e00f5b00e08f5b0006003d0003
:100dd0006044b8006055b8000402540085825c008d
:100de00006035d0087835d00aaff07000c00e0009a
:100df000060032006022b8006033b80000005200e4
:100e000081805a0002015b0083815b004f067800fd
:100e10004f05be004f04be0000000600889fbe00c4
:100e20008a9fbe008c1f78000006eb00e00f500088
:100e3000e08f5800e00f5900e08f590007003d0097
:100e40006044b8006055b8000000540081805c0028
:100e500002015d0083815d001c002000e00f520054
:100e6000e08f5a00e00f5b00e08f5b0007003d0061
:100e70006044b8006055b8000402540085825c00ec
:100e800006035d0087835d000c00a2000c000700d4
:100e90000c00e000060032006022b8006033b800a9
:100ea0000000520081805a0002015b0083815b00d8
:100eb0004f0678004f05be004f04be00000006003c
:100ec000889fbe008a9fbe008c9fbe000404b800ad
:100ed0000506b8008904460060854e000606b80085
:100ee0000a054600e0854e000706b8008b0546005f
:100ef000040eb800890446000a854e00e0854d00c6
:100f0000050eb8000a0546008b854e00060eb80097
:100f10008b0546000416b8000a0546008b854e0076
:100f20000516b8008b054600041eb8008b05460068
:100f30000800be000a01be004f06be004f05be00fd
:100f40004f04be0000000600800178000200370058
:100f5000b15978000201e9000200e000fcff3a000c
:100f60000000060080007800010178003104e000f4
:100f7000fdff3a000000510000000600881f7800c5
:100f80000204780008017800efff07000800400025
:100f90004f047800000006000000fa00881f780067
:100fa00000047800ea8157003fb997008800780074
:100fb000e07b2000070007000000e0000200350091
:100fc00000044400004ceb004f0478000080fa005d
:100fd000000006006200fa00889fbe008a1f7800a9
:100fe000000578008104780002047800830078000e
:100ff00080f92f000f004000cf0307009a979f0051
:10100000a9979f000000eb00b09f9f001885fb0090
:101010008a04fb000a05ea004f55de00500220005a
:10102000808f54000d003200e10f55000b003a0094
:101030000a017800880078002f9097009f91970010
:1010400003000100a0979f000000e0008e00320026
:101050003f9897000000e800b09f9f000a044400fa
:1010600050022000808f5400040032000900e0008c
:10107000e6ff3a003f989700840037000000eb003d
:10108000909f9f00809f9f00f0979f00e0979f0098
:10109000d0979f00c0979f0007003700012a2100ca
:1010a00001005000000040004129210080804000e4
:1010b0005f98970011007000d09f9f00880478000f
:1010c00009047800384578008a00fb00002a2100d6
:1010d000940107000000e000f0ff3a00a1c2b30055
:1010e000814f55000e003a00cf8897000180e9003b
:1010f000c08f9f0010007800c09f9f000000e0009c
:1011000005003d000000ea00c09f9f005f98970027
:101110000020a000d09f9f000904e8000f003700c6
:10112000c09f9f000000eb0005003700f2ff270082
:10113000820f500002003200ea00b9000080400037
:101140000904780088047800b900fb000103b100ad
:10115000e98f5000f5ff3600c09f9f00e0c2b3004a
:10116000984f1000020032000080eb001900370099
:10117000a0c2b300d84f100007003a00cf889700f4
:101180000180e900c08f9f0010007800a09f9f00a1
:101190000804e800100037000000eb00a09f9f004b
:1011a0008800780005003700f3ff2700830f500008
:1011b00002003200ea00b90000004100010478009a
:1011c000880078003101fb000203b100e90f5100f3
:1011d000f5ff3600a09f9f00984478008900fb002f
:1011e000c02821004f0107000000e000020032008b
:1011f0000804e800010037008044eb00c97f9f002d
:1012000080c6b30080cf540004003a0098cf140089
:101210000a003a006640500006003700c0c6b3001e
:1012200080cf540005003a0098cf140003003a0024
:1012300065404000c07f9f000804e8001801fb00e3
:10124000e3fb2f008f81410081f92f008f80400048
:10125000a0f92f000f004000100007000000e00080
:1012600009003a00e1fb2f008f804000a0f92f0019
:101270000f004000740207000000e000020035008b
:101280000804e80061ff37000080eb004f0578009c
:101290004f04be000080fa0000000600889fbe00d8
:1012a0008a9fbe00e4c6b300844f5100ce003200d6
:1012b00010003c006b425200844f51001800320075
:1012c00005003c0054c2b300844f510006013200b7
:1012d00084c5b3000f00370044c6b300844f5100eb
:1012e0001500320065424200844f510001013a006e
:1012f0001100370004c7b300844f5100ed003200e5
:101300005f00350065424200844f51005c003200ae
:1013100063424200844f5100f6003a005800370003
:101320001181e90082087800f0009000818141007d
:1013300092497800f500370020629000c5c6b300de
:10134000854f520008003a009102780064825200f2
:101350008408780094029000140278004fabde00fd
:10136000860378001600370015c7b300854f52007a
:1013700003003a00110478006802540005003700a9
:10138000a5c6b300854f520008003a0091047800ca
:10139000688254008408780094029000240390002e
:1013a000b403900014027800050037001182e900b0
:1013b0008408780014027800cfa2de00612bb90007
:1013c0000498be000690be00a060900088c6b300de
:1013d00088cf50000d00320028c6b30088cf5000df
:1013e00004003a000402fb00cfa2de00612bb9002a
:1013f0000800370048c7b30088cf50000300320010
:101400006644440088cf500004003a00cfa2de00ba
:10141000612bb9000498be000690be00100278004f
:101420009002900020039000b0039000f000900024
:10143000e00f5200e08f5a00e00f5b00e08f5b008e
:1014400003003d0001824100d5c2b3000a0037000d
:10145000001290000418a300030032000182410032
:10146000b5c2b300040037000408a30059003200dd
:101470000182410005c2b300054a780053003700dd
:1014800020629000c5c6b300854f520009003a00a3
:10149000110578006402550084087800140478006f
:1014a000940490006055b8000802be000a03be0014
:1014b0001600370015c7b300854f520003003a00ed
:1014c000910478006882540005003700a5c6b30077
:1014d000854f520008003a00110578006802550057
:1014e000840878009402900024039000b4039000d4
:1014f00014027800050037001182e90084087800a2
:10150000140278008002eb006033b8000498be003b
:101510000690be00a060900088c6b30088cf50003f
:101520000d00320028c6b30088cf500004003a00f6
:101530000482fb008002eb006033b8000800370033
:1015400048c7b30088cf500003003200664444000f
:1015500088cf500004003a008002eb006033b800ee
:101560000498be000690be00801090000138a300d1
:1015700018003200100278009002900020039000c2
:10158000b0039000e00f5200e08f5a00e00f5b00c4
:10159000e08f5b000f00320081c7b300814f510024
:1015a0000300320081c5b300814f510009003a00a9
:1015b000f00090000182410005c3b300054a7800a5
:1015c0008100e80001824100024a78008100e800c1
:1015d00071009800f0009000818141006300980044
:1015e000824078003e003700a0619000c4c6b3007e
:1015f0001181e90084cf5100220032000a003c0032
:101600006442520084cf51002500320004c2e80039
:1016100084cf5100130032006842520084cf510041
:101620001e003a000a00370044c7b30084cf5100bf
:101630001b0032006642420084cf51001800320085
:101640006942520084cf510014003a00050037006f
:101650008208780092007800405890008048780016
:101660002c0037008208780092007800600a900011
:10167000cfa2de00612bb9008498be008690be0028
:1016800024003700820878009200780060099000fa
:10169000cf91de008288be001e0037001181e90074
:1016a0008208780092007800600890008008780036
:1016b000180037001181e9008208780012027800d2
:1016c000cfa2de00612bb9000498be000690be00d8
:1016d000f0009000818141006300980081c7b30051
:1016e0001c0007000b003700f000900081814100d2
:1016f00005003700f0009000818141000204e00005
:1017000001003a0052c2b300824978008100e8002b
:10171000710098000000eb004f05be004f04be00b2
:1017200000000600020037000304e000060032005b
:101730000001780002007800b041780081cf5100ac
:10174000f9ff3a00010037000001eb0002007800c9
:1017500000000600fc874700889fbe008a9fbe00ed
:101760008c9fbe008e1f78000006780080c5b300f5
:1017700080cf50000a0032007740400080cf5000f8
:101780000a0032006940400080cf50000b00320058
:10179000b025210080bf9f00ae0020000a00370066
:1017a000a224210082bf9f0006003700b32521003c
:1017b00083bf9f008e00200003003700b425210066
:1017c00084bf9f000e0120001c0278009c02900044
:1017d0002c039000bc0390000605be000404be006c
:1017e00040c6b30080cf5000030032006540400087
:1017f00080cf50000b003a00e00f5200e08f5a00fb
:10180000e00f5b00e08f5b0006003d006000b80069
:101810006011b80004045000858458000605590082
:1018200087855900e80f570004003200400020006f
:10183000f00f57003c003a00010037003000200054
:10184000e00f5400e08f5c00e00f5d00e08f5d0072
:1018500004003a00dc0890008d0120000100e00047
:10186000070032008e00e900888060008fba970080
:101870008180420091407800f1ef9f007d012000bf
:10188000800078008100e900050033008b05d1005d
:101890000a85d3008984d3000884d300f9ff370078
:1018a000089ebe000a96be00130037008d06e900b0
:1018b0008e00e900848060000fb99700810041002c
:1018c0001141780083fd2f008d81410082f779005e
:1018d000800178008301e900050033008783d1008f
:1018e0000683d3008582d3000482d300f9ff37003a
:1018f000049ebe000696be001c0278009c0290006a
:101900002c039000bc039000e00f5200e08f5a00bf
:10191000e00f5b00e08f5b00930034000d00e000ff
:10192000e2ff3c00900037002c60900081c6b300bd
:10193000814f50000b00320006003c000004e00024
:1019400008003200e6c05000814f500052003a00bb
:1019500004003700c1c6b300814f50004e003a006a
:10196000230037000800e00004003a005c08900003
:101970008d0120000000e000070032001100090086
:101980000e84d8000fba9700010042001040780082
:10199000f0ef9f007d012000110009000e84d800a7
:1019a0000b003700110009000e04d8008d06e90075
:1019b0008e81b900020454008fb89700088440005b
:1019c0009841780082fd2f000d0141008377790056
:1019d000000478000800e000020032000d00e00082
:1019e000f0ff3c00cfc4de00614db9002700370096
:1019f000e00f5400e08f5c0004003a005c089000a7
:101a00008d0120000000e000080032006171b90083
:101a10000800be00590107000fba9700800042007d
:101a200091407800f1ef9f007d0120006171b900c5
:101a30000800be00e5fb07000c0037006171b9002b
:101a40000800be003e0107008d06e90080f1b900e4
:101a5000020454008fba970008844200984178002d
:101a600082fd2f000d014100837779000004be0044
:101a7000e00f5000e08f5800020032000d00e0003f
:101a8000eeff3c004fcdde008a057800089ebe00c8
:101a90000a96be0034003700e00f5400e08f5c006f
:101aa000e00f5d00e08f5d0004003a005c089000ec
:101ab0008d0120000000e0000a0032006172b900d0
:101ac000612bb9000800be000a01be0071fc0700ce
:101ad0000fba97008000420091407800f1ef9f001c
:101ae0007d0120006172b900612bb9000800be00c1
:101af0000a01be0060fc07000e0037006172b900e9
:101b0000612bb9000800be000a01be0065fc070099
:101b10008d06e90080f2b900040454008fba9700e2
:101b2000088442009842780084fd2f000d02420094
:101b300085777a00009ebe000296be001c047800e5
:101b40009c0490002c059000bc059000e00f540010
:101b5000e08f5c00e00f5d00e08f5d00020034006c
:101b60000d00e000e5ff3c00e80f570010003a00d0
:101b70000c1090000038a3000d003200f78f5600c3
:101b800006003e0080fd2f000d004000ef40780071
:101b900000c3b30080cf50000500320002c3b30081
:101ba00071fd2f008d8040008d06e90082f77800de
:101bb00078811600120e98006c00900083fd2f00b3
:101bc0008f8141008d804100dffc07001c089000e0
:101bd000dc089000810f500006003d00008050009e
:101be000000e98000c1090000040a1000016980014
:101bf0000f0037000100e0000d003d008c10900048
:101c0000f4806000f08f500009003a007c099000d9
:101c1000fc009000810051000c099000828050006f
:101c2000008050004240a90001003400000e9800de
:101c30004f0778004f06be004f05be004f04be00a0
:101c4000cf01b100000006000400fa00889fbe002a
:101c50008a9fbe008c1f780000047800010678007f
:101c6000f80d9000780090008085550008089000dd
:101c70008085550018089000808555002808900040
:101c800080855500380890008085550048089000f0
:101c9000808555000002220090bf9f0000032300b2
:101ca000a0bf9f00081090000028a30015003a0074
:101cb0000b00e000130034000b0578008a04780064
:101cc000e20f55000100360029002000c8019000f5
:101cd00009017800ee8057005800900003000100d1
:101ce000500498000000e0008c003200680890006a
:101cf00009004000600c9800090555004240a90009
:101d0000eeff3c00780190000200e0000c0034007f
:101d1000c80190008c00780058009000030001007a
:101d2000500498008080eb000000e0007c0032004e
:101d3000e80890007800900000804000600c980057
:101d4000880c90000900e0001100340009057800bb
:101d5000e28f5400010036002a002000c8019000e4
:101d60000a017800ec805700580090000300010041
:101d7000500498000000e0006800320068089000fd
:101d80000a004000600c98008a845400edff370080
:101d9000180990000200e0000c003400c801900017
:101da000e8009000580090000300010050049800e3
:101db0008080eb000000e00059003200e80890004d
:101dc0001808900000804000600c9800a80c90005b
:101dd0000900e0001100340009057800e28f54008a
:101de000010036002a002000c80190000a01780096
:101df000ec80570058009000030001005004980048
:101e00000000e00045003200680890000a00400031
:101e1000600c98008a845400edff37003809900068
:101e20000200e0000e003400e80090001808900066
:101e300080804000c801900058009000030001001d
:101e4000500498008080eb000000e0003400320075
:101e5000e80890003808900000804000600c98006e
:101e6000c80c90000900e00011003400090578005a
:101e7000e28f5400010036002a002000c8019000c3
:101e80000a017800ec805700580090000300010020
:101e9000500498000000e000200032006808900024
:101ea0000a004000600c98008a845400edff37005f
:101eb000081090008000eb000028a30018003200fa
:101ec0000b00e000160034008b0478000905780050
:101ed000e28f5400010036002a002000c801900063
:101ee0000a017800ee8057005800900003000100be
:101ef000500498000000e0000800320068089000dc
:101f00000a004000600c98008a8454004240a900f6
:101f1000eeff3c008000eb00010037008080eb000a
:101f2000010078004f0678004f05be004f04be0048
:101f30000080fa000000060001087800000006009a
:101f4000839f68000100e00002003d006000100077
:101f5000e08018000300e00002003d006001110075
:101f6000e081190099fa07004f00e00002003b00f1
:101f700060001000e08018000000060093fa0700df
:081f80000400be000000060091
:020000040000fa
:101f880054520000522d000055200000005400005b
:101f9800525200002d44000020000000545200005e
:101fa800522d00004c200000005400005252000046
:101fb8002d520000200000005269000067740000e4
:101fc80055200000005200006967000074440000ba
:101fd800200000002d2d00002d2d00002d200000d8
:101fe800004c0000656600007444000020000000fa
:101ff8004c65000066740000552000000054000085
:10200800524c00002d5500002000000054520000e2
:102018004c2d00004420000000540000524c0000e9
:102028002d4c000020000000545200004c2d0000f0
:102038005220000000250000346400002534000010
:1020480064250000346400002534000064000000aa
:10205800312e000020630000616c000069620000fe
:1020680072610000746900006f6e0000202000009b
:10207800003200002e20000073650000742000006c
:102088006e6f0000726d00002f7200006576000010
:1020980020000000332e000020740000657300004b
:1020a800742000006b650000797300002020000098
:1020b80020200000004d0000494400005f4c000053
:1020c800583d000025340000643c00003136000013
:1020d80030300000004d0000494400005f4c000013
:1020e800583d000025340000643e000032340000f2
:1020f80030300000004d0000494400005f4c0000f3
:10210800593d000025340000643c000031360000d1
:1021180030300000004d0000494400005f4c0000d2
:10212800593d000025340000643e000032340000b0
:1021380030300000004d0000494400005f520000ac
:10214800583d000025340000643c00003136000092
:1021580030300000004d0000494400005f5200008c
:10216800583d000025340000643e00003234000071
:1021780030300000004d0000494400005f5200006c
:10218800593d000025340000643c00003136000051
:1021980030300000004d0000494400005f5200004c
:1021a800593d000025340000643e00003234000030
:1021b8003030000000740000757200006e200000ce
:1021c8004c20000075700000202600002000000050
:1021d80025340000640000004d410000585f0000f5
:1021e8004c5900003d250000346400003c250000e7
:1021f8003464000000740000757200006e20000056
:102208004c200000646f0000776e0000260000007c
:102218004d490000585f00004c5900003d25000062
:10222800346400003e25000034640000007400009f
:10223800757200006e2000004c2000006c650000e4
:1022480066740000260000004d410000585f000041
:102258004c5800003d250000346400003c25000077
:102268003464000000740000757200006e200000e5
:102278004c200000726900006768000074000000cc
:102288004d4900004e5f00004c5800003d250000fd
:10229800346400003e25000034640000007400002f
:1022a800757200006e20000052200000757000005a
:1022b80020260000200000004d410000585f00006b
:1022c800525900003d250000346400003c25000000
:1022d8003464000000740000757200006e20000075
:1022e80052200000646f0000776e00002600000096
:1022f8004d4900004e5f0000525900003d25000086
:10230800346400003e2500003464000000740000be
:10231800757200006e200000522000006c650000fd
:1023280066740000260000004d4900004e5f000062
:10233800525800003d250000346400003e2500008e
:102348003464000000740000757200006e20000004
:1023580052200000726900006768000074260000bf
:10236800004d0000415800005f520000583d000039
:1023780025340000643c000025340000640000009f
:102388002a2a000020530000415600004520000082
:1023980045520000524f0000522000002a2a000037
:1023a800004100005050000020490000443d00005a
:1023b800202500003032000058250000303200008f
:1023c8005825000030320000582500003032000047
:1023d8005800000025320000640000005457000037
:1023e800452000004c4900005445000020520000e0
:1023f80045440000002000006e3d000025640000f8
:1024080000540000524900004747000045520000b0
:102418002042000055540000544f00004e20000098
:102428005200000054520000494700004745000090
:102438005220000042550000545400004f4e000046
:10244800204c000000250000327500002e250000f9
:10245800303200007556000020250000337500005a
:102468005220000000420000555a000020000000e1
:10247800426f00006666000000250000327500000b
:102488002e2500003032000075560000202500007f
:10249800337500005220000025320000754200000c
:1024a8004200000043470000554e00002053000042
:1024b80054550000524d00002054000049470000c8
:1024c8004852000000250000327500002e2500004b
:1024d80030320000755600002025000033750000da
:1024e8005220000025330000754300000020000042
:1024f8002a4c00004f5700002a2000002533000016
:1025080075520000202500003375000042000000cd
:1025180025320000752e00002530000032750000bd
:1025280056200000253300007552000020250000c9
:102538003375000042000000c2b30000bcdd00009b
:1025480020bc0000afca0000dfb20000202000005d
:1025580020b50000bbda0000c0200000cfcf00008b
:10256800c3de0000bd200000202000002020000065
:1025780020b50000bbda0000c0200000cfcf00006b
:0c258800c3de0000bd2000002020000089
:020000040000fa
:102594000200fa00000f78001e007800e10f5000de
:1025a40009003200e10f500005003900e20f50002d
:1025b40007003200e30f5000070032000800370024
:1025c40001eba8000600370011eba8000400370057
:1025d40021eba8000200370031eba8000000000046
:1025e4000080fa00000006000400fa00000f7800e2
:1025f400110798001e007800e10f50000b00320014
:10260400e10f500005003900e20f50000b003200ca
:10261400e30f50000d003200100037009e009000c0
:1026240021588800062bef000c0037009e00900014
:10263400a1588800162bef00080037009e00900078
:1026440021598800262bef00040037009e009000db
:10265400a1598800362bef00000000000080fa002a
:10266400000006000400fa00000f7800110798002b
:102674001e007800e10f50000a003200e10f500004
:1026840005003900e20f500009003200e30f50004a
:102694000a0032000c0037009e0090006158880048
:1026a400090037009e009000e158880006003700ba
:1026b4009e00900061598800030037009e0090003e
:1026c400e1598800000000000080fa0000000600c4
:1026d4000000fa0001eca8000080fa0000000600e7
:1026e4000400fa00000f7800110798001e0078001b
:1026f400e20f500007003200e30f500008003200e0
:10270400e10f50000a003a009e00900031618800f9
:10271400080037009e0090003162880005003700f1
:102724009e00900031638800000000000100370023
:10273400000000000080fa00000006000000fa001b
:10274400ffff37000000fa00ffff37000000fa0027
:10275400196ea900194ea900ffff37003a00fa00cc
:10276400881f78000080230001102000281807002b
:10277400008fbe0050052000a10a20008217070028
:102784001e0078009e009000ae1707004047980096
:102794004e4090000004a2000004e0000300320058
:1027a400e6ff070010c0b300160137000000eb007d
:1027b400401f980010808000301f98003e19900040
:1027c400ce1990004c18dd00c410de0081007000aa
:1027d4004c10dd00301f9800411f9800be18900077
:1027e40022808000f0ff2000000061000080400093
:1027f400301f98003e189000ce18900030079800c3
:10280400410798000000eb00401f980030808000d2
:10281400301f98003e199000ce1990004c18dd002e
:10282400c410de00810070004c10dd00301f9800e1
:10283400411f9800be18900042808000f0ff2000e5
:102844000000610000804000301f98003e18900096
:10285400ce18900050079800610798000000eb0024
:10286400401f980050808000301f98003e1990004f
:10287400ce1990004c18dd00c410de0081007000f9
:102884004c10dd00301f9800411f9800be189000c6
:1028940062808000f0ff20000000610000804000a2
:1028a400301f98003e189000ce18900070079800d2
:1028b400010f98000000eb00401f9800708080001a
:1028c400301f98003e199000ce1990004c18dd007e
:1028d400c410de00810070004c10dd00301f980031
:1028e400411f9800be18900082808000f0ff2000f5
:1028f4000000610000804000301f98003e189000e6
:10290400ce189000100f9800210f98000000eb00e3
:10291400401f980090808000301f98003e1990005e
:10292400ce1990004c18dd00c410de008100700048
:102934004c10dd00301f9800411f9800be18900015
:10294400a2808000f0ff20000000610000804000b1
:10295400301f98003e189000ce189000300f980059
:10296400410f98000000eb00401f9800b0808000e9
:10297400301f98003e199000ce1990004c18dd00cd
:10298400c410de00810070004c10dd00301f980080
:10299400411f9800be189000c2808000f0ff200004
:1029a4000000610000804000301f98003e18900035
:1029b400ce189000500f9800610f98005e019000af
:1029c400ee0190003e009000ce0090000202be0096
:1029d4000001be001e0078009e009000271707002b
:1029e400404798004e4090000084fb001e09900070
:1029f400ae0990007e0090008e08900044002000f4
:102a0400050020003e034200ae834a000202be00dd
:102a14000001be000600be00181707000080fb007e
:102a24000000640000f0a7000000ea000000ea00d3
:102a34004f00de00404798004e4090000084fb00a9
:102a44005e099000ee0990003e089000ce089000c8
:102a540084002000050020003e034200ae834a00ab
:102a64000202be000001be000600be0003170700fc
:102a74000080fb000000640000f0a7000000ea00f2
:102a84000000ea004f00de00404798004e409000ee
:102a94000004a2000004e0000300320027ff070046
:102aa40010c0b30057003700bc1607001e007800a2
:102ab4009e009000d6160700700f9800011798002a
:102ac40022002000030020003e004100ae804900a7
:102ad400cf16070010179800211798004400200013
:102ae400050020003e004200ae804a00c8160700e0
:102af400301798004117980062002000030020005e
:102b04003e004100ae804900c116070050179800ee
:102b14006117980084002000050020003e00420058
:102b2400ae804a00ba16070070179800011f98007b
:102b3400a2002000030020003e004100ae804900b6
:102b4400b3160700101f9800211f98003e01900043
:102b5400ce0190007e0890008e109000800f5100ee
:102b6400818f590023003a005e019000ee0190002d
:102b74001e109000ae109000800f5100818f5900fc
:102b84001c003a007e0190008e0990003e109000d7
:102b9400ce109000800f5100818f590015003a002b
:102ba4001e099000ae0990005e109000ee10900097
:102bb400800f5100818f59000e003a003e099000a9
:102bc400ce0990007e1090008e189000800f510066
:102bd400818f590007003a005e099000ee099000c9
:102be4001e189000ae189000800f5100818f59007c
:102bf40003003200d3fe070010c0b3000100370009
:102c04000040eb004f0478000080fa00000006004a
:102c14000800fa000080230001102000fc160700c1
:102c2400008fbe001e0078009e00900078160700fa
:102c34002007980031079800ae009000f0ff2000b4
:102c440000806000208088002e009000be0090006c
:102c54004409dd004c00de0000007100cc08de00f9
:102c640020079800310798002e00900010808800fb
:102c740011808000f07c2000808f500002003e0014
:102c840010c0b30088003700220020000300200099
:102c94003e004100ae8049005d1607002007980001
:102ca40031079800ae009000f0ff20000080600023
:102cb400408088002e009000be009000c409dd0012
:102cc4004c00de0000807100cc08de002007980074
:102cd400310798002e0090003080880041808000e9
:102ce400f07c2000808f500002003e0010c0b30032
:102cf4006d00370042002000030020003e00410028
:102d0400ae8049004216070020079800310798005a
:102d1400ae009000f0ff200000806000608088001a
:102d24002e009000be009000c409dd004c00de00bf
:102d340000807100cc08de0020079800310798005d
:102d44002e0090005080880061808000703e20003a
:102d5400808f500002003e0010c0b30052003700c4
:102d640062002000030020003e004100ae804900c4
:102d7400271607002007980031079800ae0090003e
:102d8400f0ff200000806000808088002e0090000a
:102d9400be009000c409dd004c00de00008071001c
:102da400cc08de0020079800310798002e00900020
:102db4007080880071808000f07c2000808f50003b
:102dc40002003e0010c0b30037003700820020002c
:102dd400030020003e004100ae8049000c160700ad
:102de4002007980031079800ae009000f0ff200003
:102df40000806000a08088002e009000be0090003b
:102e0400c409dd004c00de0000807100cc08de0047
:102e140020079800310798002e00900090808800c9
:102e2400a1808000f07c2000808f500002003e00d2
:102e340010c0b3001c003700a200200003002000d3
:102e44003e004100ae804900f115070020079800bc
:102e540031079800ae009000f0ff20000080600071
:102e6400c08088002e009000be009000c409dd00e0
:102e74004c00de0000807100cc08de0020079800c2
:102e8400310798002e009000b0808800c180800037
:102e9400703e2000808f500002003e0010c0b3003e
:102ea400010037000040eb000080fa00000006003b
:102eb4001200fa0030079800410798005207980062
:102ec4006307980074079800050f9800ee009000bf
:102ed4004e009000808f500031003600de009000dc
:102ee4000e089000808050006e009000808f50008b
:102ef40002003e000080200055003700ce00900004
:102f04007e009000808040006e009000808f500012
:102f140002003900004020004d003700ce00900030
:102f24007e00900000804000ee0090000080500081
:102f34008000eb00008fbe001e0178009e0190000f
:102f44004a18dd00c610de00810070004a10dd0062
:102f5400008fbe00de0090000e08900080805000bc
:102f64004e0190007e00900000004100008050005f
:102f74008000eb000001be001e0078009e0090005f
:102f840091f60700008fbe009e007800210798008c
:102f9400ae00900000402000008040002c0037006c
:102fa400be0090000e089000808040006e009000eb
:102fb400808f5000020039000000eb00240037002d
:102fc400ce0090007e009000808050006e00900043
:102fd400808f500002003e00004020001c0037009b
:102fe400be0090000e08900000804000ee009000ab
:102ff400008050008000eb00008fbe001e017800ae
:103004009e0190004a18dd00c610de0081007000a9
:103014004a10dd00008fbe00ce0090007e009000bc
:10302400808050003e0190000e0890000000410096
:10303400008050008000eb000001be001e007800fc
:103044009e00900060f60700008fbe001e0078000e
:103054000080fa00000006001600fa0020579800cd
:10306400315798004257980053579800c181800007
:10307400f00f2000008f60000040eb0070479800c4
:10308400ce5090002e50900080cf50000d0036009e
:10309400ce5090002e50900000c050006047980021
:1030a400be0090001e0078008088b90030079800a8
:1030b400fe4090002e50900000c0400070479800e1
:1030c40010003700ae5090004e50900000c05000e9
:1030d40060479800be0090001e0078008088b90008
:1030e40030079800ae509000114f98000040eb005c
:1030f400004f9800ce0090003e00900000805000e9
:10310400300798000040eb00304f9800de509000ec
:103114003e50900080cf50000d003600de509000ed
:103124003e50900000c05000204f9800de009000f8
:103134001e0078008088b90050079800be489000af
:103144003e50900000c04000304f980010003700ff
:10315400be5090005e50900000c05000204f980078
:10316400de0090001e0078008088b90050079800a7
:10317400be509000514f98000040eb00404f980023
:10318400ee0090005e009000008050005007980010
:10319400d1818000f00f20000080600010079800ab
:1031a400de0090003e009000808f50001600310039
:1031b400be0090005e0090000080500070079800f0
:1031c4007e4890008080fb001e0090008088b9003b
:1031d400200798006e4890008080fb001e0090003d
:1031e4008088b90070079800de0090002e009000df
:1031f400808040007e4890000080fb0000804000fa
:10320400000f980015003700de0090003e0090008b
:1032140000805000700798007e4890008080fb007a
:103224001e0090008088b900200798006e48900026
:103234008080fb001e0090008088b9007007980011
:10324400de0090002e009000808050007e489000a8
:103254000080fb0000805000000f98008e08900052
:1032640000082000008060000000e000030032003d
:103274001e5090000040e800105798001e50900027
:103284000080fa00000006000600fa0003818000b6
:10329400128080003180800020808000250320007f
:1032a4002403200002ff0700200798002e0090004e
:1032b4004300de0020079800ae009000f00f2000cd
:1032c400808f50000300360000c0eb0035f0b700db
:1032d400030037002e0090000040780035f0b7005e
:1032e400f3808000428080006180800050808000f4
:1032f4002503200024032000edfe0700200798008a
:103304002e0090004300de0020079800ae009000dd
:10331400f00f2000808f50000300360000c0eb0047
:1033240036f0b700030037002e009000004078000c
:1033340036f0b7002ad0bf000004e0002c003a00a9
:10334400d3808000a2808000c1808000b080800093
:103354002503200024032000d5fe07002007980041
:103364002e0090004300de0020079800ae0090007d
:10337400f00f2000808f50000300360000c0eb00e7
:1033840033f0b700030037002e00900000407800af
:1033940033f0b700e3808000728080009180800069
:1033a400808080002503200024032000c0fe070045
:1033b400200798002e0090004300de0020079800ac
:1033c400ae009000f00f2000808f50000300360004
:1033d40000c0eb0034f0b700030037002e0090006b
:1033e4000040780034f0b7003c70ef00b0003700c4
:1033f400d3808000a2808000c1808000b0808000e3
:103404002503200024032000a9fe0700c0818800b2
:10341400e380800072808000918080008080800042
:103424002503200024032000a1fe0700d08188008a
:10343400c08180004800de0000407800e900b90047
:1034440080407800d08180004800de000040780091
:1034540000c05000684f40001e4178000104210064
:103464008248780040d0bf003ef0b700d181800090
:10347400f07f2000808f500001003e001e4fe900c5
:103484001e417800f1032100824878003fd0bf003c
:103494003df0b700c1818000f07f2000808f500094
:1034a40006003e003dd0bf00694040003ff0b70039
:1034b4003ed0bf006940400040f0b70040d0bf009c
:1034c4000080fb00e10a2100008040009041780068
:1034d4003fd0bf000080fb00e10a210000804000d3
:1034e400104178003ed0bf000080fb00e10a2100bb
:1034f40000804000904078003dd0bf000080fb0079
:10350400e40a21000000420010407800d2fe0700c7
:1035140033f0b70040d0bf000080fb00f10f210062
:1035240000804000904178003fd0bf000080fb0045
:10353400f10f210000804000104178003ed0bf0010
:103544000080fb00f10f21000080400090407800d3
:103554003dd0bf000080fb00f40f210000004200ba
:1035640010407800bcfe070034f0b7000040eb00c8
:1035740010479800d01e210010407800e14f500001
:1035840004003200e01e210010407800e14f50009a
:1035940019003a0010c0b30010479800d081800091
:1035a4004300de0010079800d1818000f07f2000e6
:1035b400808f500002003600f00f200010079800a2
:1035c4001e0090000000e00002003a0010002000fd
:1035d400100798001e0090000040780034f0b700f7
:1035e4001e009000004078000040ea0033f0b7006d
:1035f40000c8b30036f0b700c1818000004020004d
:10360400808f500002003e0010c0b30010479800a5
:1036140000d0bf000080fb008000400000152100a6
:103624000080400090007800c08180000008b00055
:10363400808f50000200360010c0b300104798007d
:1036440000d0bf008080fb00c281800081814000e7
:103654000115210081804100820878000040e800c3
:1036640000f0b70000d0bf00f04f500001003a0056
:103674000070ef001e409000e14f500002003a003d
:1036840080c0b30030f0b70030d0bf000004e000c9
:103694000600320030d0bf000040e90030f0b7002f
:1036a40010c0b3003cf0b700010037003c70ef00dd
:1036b400510321009140780000c8b30080cf50002e
:1036c4000f003a00610321009140780000c8b30064
:1036d40080cf50000a003a00310321009140780065
:1036e40000c8b30080cf500005003a004103210018
:1036f4009140780000c8b30080cf50000100320030
:103704000621ef000080fa00000006000200fa0023
:10371400000f780010708000640060000000e0007a
:103724000b003200408280000000e80040828800e4
:10373400408280000000e00003003a0040828000e4
:103744000000e800408288004630ef000a0037009d
:10375400308280000000e8003082880030828000df
:103764000000e00003003a00308280000000e8001e
:10377400308288004830ef001e0078000000e0002e
:103784000d0032001e0078008000eb006011b800cc
:10379400f4462d00854220006033b8009ef50700f2
:1037a400843e2000050020006033b80031f5070096
:1037b4000000be00741807000080fa000000060034
:1037c4000200fa000040eb00004f780006003700ca
:1037d4001e80fb0001172100008040008040eb00a8
:1037e400014878001e4fe8001e407800ff4f50004b
:1037f400f7ff36000080fa00000006000200fa001d
:1038040031818000010f7800f0c520009e0078000f
:10381400808f500018003600b01b21008040eb0060
:1038240001487800b01b210090407800a01b2100c3
:1038340001487800a01b210090407800901b2100d3
:1038440001487800901b210090407800801b2100e3
:1038540001487800801b210090407800701b2100f3
:1038640001487800701b210090407800601b210003
:10387400014878009d003700408020009e007800b9
:10388400808f500017003600601b210011c0b30068
:1038940001487800b01b21008040eb00014878000b
:1038a400b01b210090407800a01b21000148780043
:1038b400a01b210090407800901b21000148780053
:1038c400901b210090407800801b21000148780063
:1038d400801b210090407800701b21000148780073
:1038e40082003700005d20009e007800808f500029
:1038f40017003600701b210011c0b3000148780086
:10390400b01b21008040eb0001487800b01b21006f
:1039140090407800a01b210001487800a01b2100e2
:1039240090407800901b210001487800901b2100f2
:1039340090407800801b210001487800801b210002
:1039440090407800601b2100014878006700370030
:10395400003a20009e007800808f50001700360047
:10396400a01b210011c0b30001487800b01b210046
:103974008040eb0001487800b01b210090407800a3
:10398400901b210001487800901b21009040780092
:10399400801b210001487800801b210090407800a2
:1039a400701b210001487800701b210090407800b2
:1039b400601b2100014878004c003700e022200001
:1039c4009e007800808f500017003600b01b210045
:1039d40011c0b30001487800a01b21008040eb0017
:1039e40001487800a01b210090407800901b210022
:1039f40001487800901b210090407800801b210032
:103a040001487800801b210090407800701b210041
:103a140001487800701b210090407800601b210051
:103a24000148780031003700a00b20009e00780088
:103a3400808f500017003600901b210011c0b30086
:103a440001487800b01b21008040eb000148780059
:103a5400b01b210090407800a01b21000148780091
:103a6400a01b210090407800801b210001487800b1
:103a7400801b210090407800701b210001487800d1
:103a8400701b210090407800601b210001487800e1
:103a940016003700801b210011c0b30001487800d4
:103aa400b01b21008040eb0001487800b01b2100ce
:103ab40090407800a01b210001487800a01b210041
:103ac40090407800901b210001487800901b210051
:103ad40090407800701b210001487800701b210081
:103ae40090407800601b21000148780041818000eb
:103af400010f780030c620009e007800808f5000af
:103b040018003600501b21008040eb00014878006b
:103b1400501b210090407800401b21000148780090
:103b2400401b210090407800301b210001487800a0
:103b3400301b210090407800201b210001487800b0
:103b4400201b210090407800101b210001487800c0
:103b5400101b210090407800001b210001487800d0
:103b64009d003700508020009e007800808f500018
:103b740017003600501b210011c0b3000148780023
:103b8400401b21008040eb0001487800401b2100cd
:103b940090407800301b210001487800301b210040
:103ba40090407800201b210001487800201b210050
:103bb40090407800101b210001487800101b210060
:103bc40090407800001b21000148780082003700f3
:103bd400b06820009e007800808f500017003600e7
:103be400401b210011c0b30001487800501b210084
:103bf4008040eb0001487800501b21009040780081
:103c0400301b210001487800301b210090407800cf
:103c1400201b210001487800201b210090407800df
:103c2400101b210001487800101b210090407800ef
:103c3400001b210001487800670037005051200024
:103c44009e007800808f500017003600101b210062
:103c540011c0b30001487800501b21008040eb00e4
:103c640001487800501b210090407800401b21003f
:103c740001487800401b210090407800301b21004f
:103c840001487800301b210090407800201b21005f
:103c940001487800201b210090407800001b21007f
:103ca400014878004c003700003a20009e0078005c
:103cb400808f500017003600001b210011c0b30094
:103cc40001487800501b21008040eb000148780037
:103cd400501b210090407800401b210001487800cf
:103ce400401b210090407800301b210001487800df
:103cf400301b210090407800201b210001487800ef
:103d0400201b210090407800101b210001487800fe
:103d140031003700e02220009e007800808f5000a0
:103d240017003600201b210011c0b30001487800a1
:103d3400501b21008040eb0001487800501b2100fb
:103d440090407800401b210001487800401b21006e
:103d540090407800301b210001487800301b21007e
:103d640090407800101b210001487800101b2100ae
:103d740090407800001b21000148780016003700ad
:103d8400301b210011c0b30001487800501b2100f2
:103d94008040eb0001487800501b210090407800df
:103da400401b210001487800401b2100904078000e
:103db400201b210001487800201b2100904078003e
:103dc400101b210001487800101b2100904078004e
:103dd400001b210001487800b07080004e00de0016
:103de4006140600080407800c01b210001487800d9
:103df40021818000010f780030d620009e007800d9
:103e0400808f50000c003600f01b21008040eb0036
:103e140001487800f01b210090407800e01b21004d
:103e240001487800e01b210090407800d01b21005d
:103e34000148780029003700e09c20009e007800ab
:103e4400808f50000b003600f01b210011c0b3001e
:103e540001487800e01b21008040eb000148780015
:103e6400e01b210090407800d01b2100014878001d
:103e74001a003700907e20009e007800808f50004a
:103e84000b003600d01b210011c0b300014878009c
:103e9400f01b21008040eb0001487800f01b21005a
:103ea40090407800e01b2100014878000b003700a7
:103eb400f01b210011c0b30001487800f01b210061
:103ec40090407800e01b210001487800e01b2100ad
:103ed40090407800d01b2100014878000080fa004f
:103ee400000006000200fa0044fe07000040eb0058
:103ef400004f78006e0037001e80fb00011b21007c
:103f04000080400010407800e14f50001f003a004c
:103f14001e80fb00911d2100008040008040eb00ca
:103f2400014878001e80fb00911c210000804000a5
:103f340010407800e24f500008003c001e80fb0057
:103f4400911c210080804000914078008140e8006d
:103f5400921c210000004100014878001e80fb00f3
:103f6400911c21000080400010407800e34f500075
:103f740024003a001e80fb00911e210000804000b6
:103f840011c0b300014878001e0037001e80fb00fa
:103f9400911c2100008040008040eb000148780023
:103fa4001e80fb00911d210000804000104078001d
:103fb400e24f500008003c001e80fb00911d2100d0
:103fc40080804000914078008140e800921d2100eb
:103fd40000004100014878001e80fb00911d210073
:103fe4000080400010407800e34f500005003a0084
:103ff4001e80fb00911e2100008040008040eb00e9
:10400400014878001e80fb00911e210000804000c2
:1040140010407800e14f50000c003a001e80fb0075
:10402400911f210000804000104078000004e0004f
:1040340006003a001e80fb00912021000080400011
:1040440011c0b30001487800050037001e80fb0052
:1040540091202100008040008040eb00014878005e
:104064001e80fb00911e21000080400090407800db
:104074001e80fb00921f21000000410010407800c8
:1040840080cf5000010032000621ef001e80fb00ab
:104094009e80fb00921e2100810041009140780027
:1040a400921f210000004100014878001e4fe800e3
:1040b4001e407800ef4f50008fff36000080fa005a
:1040c400000006000400fa000040eb00004f7800f6
:1040d400cafd0700001b2100104078000004e00026
:1040e40005003200601721006200200041fc280016
:1040f40094f3070033003700101b210010407800b0
:104104000004e00005003200601721006200200076
:10411400b1fc28008bf307002a003700201b210084
:10412400104078000004e000050032006017210010
:104134006200200021fd280082f3070021003700df
:10414400301b2100104078000004e000050032001c
:10415400601721006200200091fd280079f3070018
:1041640018003700401b2100104078000004e000d4
:1041740007003200601721006200200001fe2800c1
:1041840070f30700a0c0b300004f78000d003700a3
:10419400501b2100104078000004e00005003200ac
:1041a400601721006200200071fe280065f30700fb
:1041b400040037006017210062002000e1fe28009f
:1041c40060f30700601b2100104078000004e00049
:1041d400050032006200200051ff28000017210072
:1041e40058f3070031003700701b2100104078009d
:1041f4000004e0000500320062002000c1ff280036
:10420400001721004ff3070028003700801b21000e
:10421400104078000004e000050032006200200035
:10422400310029000017210046f307001f00370062
:10423400901b2100104078000004e00005003200cb
:1042440062002000a1002900001721003df30700af
:1042540016003700a01b2100104078000004e00085
:10426400050032006200200011012900001721001e
:1042740034f307000d003700b01b21001040780014
:104284000004e000050032006200200081012900e2
:10429400001721002bf30700040037006200200000
:1042a400e1fe28000017210026f30700c01b2100af
:1042b400104078000004e00004003200c017210020
:1042c40011c4b3000148780003003700c01721006f
:1042d400d1c2b30001487800d017210001c2b30055
:1042e40001487800f01b2100104078000004e00031
:1042f40004003200e0172100c1c4b3000148780073
:1043040003003700e0172100d1c2b3000148780050
:10431400d01b2100104078000004e00004003200ab
:10432400f017210021c5b3000148780003003700cd
:10433400f0172100d1c2b300014878000018210011
:104344008040eb000148780000c8b300c6130700a2
:10435400001721009a130700cbfb07000000eb00b5
:1043640010079800310321009140780000c8b30081
:1043740080cf50000500360033d0bf000080fb0022
:104384000008b100100798000500370033d0bf00c3
:104394000080fb00010820000080500010079800f6
:1043a4001e0090004400dd00800078001000200012
:1043b400cbf807000000eb00100798004103210030
:1043c4009140780000c8b30080cf5000050036004b
:1043d40034d0bf000080fb000008b1001007980033
:1043e4000500370034d0bf000080fb000108200026
:1043f40000805000100798001e0090004400dd006b
:104404008000780020002000b5f8070000ccb3003d
:104414009513070034d0bf008081fb0033d0bf0068
:104424000081fb0036d0bf008080fb0035d0bf0088
:104434000080fb00831f7800821f7800811f7800b2
:10444400801f7800f0012900801f780000172100e8
:10445400d0f20700ea87570000172100581307001d
:104464001e4078000080fa00000006000000fa00f8
:104474000000eb00a5fc070031828000400620000c
:10448400808f500008003600196ea9004082800019
:10449400e90f500002003e00a00020009bfc070032
:1044a400194ea900ffff37000080fa000000060043
:1044b4000000fa0001d0bf000004e00002003a004e
:1044c400198ea9000c00370001d0bf000040e9009c
:1044d40001f0b70001d0bf000000fb0061006000e4
:1044e400004078000004e00002003200198ea800a9
:1044f40001003700198ea9000080fa0000000600b0
:104504001c00fa00205f98000040eb00004f780088
:104514000000eb00100798000170ef00d3ff0700c4
:10452400e3ff07002e589000ea4f500013003400b8
:104534002e589000f54f500010003c001e009000d3
:104544000000e0000d00320000ccb3004613070069
:104554001e0090000000e900100798001e00900063
:104564000000e00003003a00b00721001413070024
:1045740002003700690047001113070059fe0700c5
:104584002e5890000000fb006101b9000080eb0090
:104594008080eb000200400083804800e20120009c
:1045a40003002000820f5000838f5800df033e0079
:1045b400000601001e00370042003700600037008b
:1045c400da033700d9033700d8033700d70337009d
:1045d400d6033700d5033700d40337007d003700f6
:1045e400d2033700d10337008d013700cd013700e6
:1045f4000d0237004d0237008d023700cd0237001f
:104604000d0337004d033700c8033700c7033700d5
:10461400c6033700c5033700c4033700c30337009c
:10462400c2033700c1033700c00337008e033700cd
:104634002e5890009e40780080cf50000a0032002f
:10464400ae589000014f780000c8b300061307006d
:10465400c0022900da12070000ccb30002130700dd
:10466400d0092100d6120700002121001040780053
:104674000004e0000200320030c0b300205f980064
:10468400f0202100104078000004e0000200320015
:1046940020c0b300205f9800d02021001040780093
:1046a4000004e00002003200b0c0b300205f9800b4
:1046b400e0202100104078000004e0008003320074
:1046c4009e0337002e5890009e40780080cf500003
:1046d4000a0032002e599000024f780000c8b3003f
:1046e400e1120700d0032900b512070000ccb30083
:1046f400dd120700d0092100b112070000212100ba
:10470400104078000004e0000200320010c0b30042
:10471400205f9800f0202100104078000004e000a1
:104724000200320030c0b300205f9800e020210076
:10473400104078000004e000630332007f03370078
:104744002e5890009e40780080cf50000a0032001e
:10475400ae589000014f780000c8b300c2120700a1
:10476400e00429009612070000ccb300be12070033
:10477400d009210092120700002121001040780086
:104784000004e0000200320020c0b300205f980063
:10479400f0202100104078000004e0000200320004
:1047a40010c0b300205f9800d02021001040780092
:1047b4000004e00002003200f0c1b300205f980062
:1047c400e0202100104078000004e00040033200a3
:1047d4005a0337002e5890009e40780080cf500036
:1047e4000a0032002e599000024f780000c8b3002e
:1047f4009d120700c00821007112070000ccb3000d
:1048040099120700b00721006d120700d020210083
:10481400104078000004e000fa003200a0c0b300a9
:1048240001f0b7000000eb00100798006000b8002a
:1048340020079800310798000040eb00004f9800d3
:104844002a00370000818000308088003180800099
:10485400f0632000808f500009003e00800c20008f
:10486400100798003180800069004700811f78009c
:10487400f1052900811f7800c6f10700e48757007d
:104884003180800000962000808f5000090036009f
:10489400800c2000100798003180800069004700d8
:1048a400811f7800f1062900811f7800b9f1070003
:1048b400e4875700308080008000eb002e019000d8
:1048c400be01900002004000838048002007980049
:1048d4003107980020b42100010020002a140700a9
:1048e4000e4890000040e800004f98008e48900069
:1048f400f0c3b30080cf5000d2ff34002e009000ec
:10490400be0090004a09dd004600de000000710090
:10491400c608de0000007800308088006000b8001f
:1049240020079800310798000040eb00004f9800e2
:104934002a003700f0808000608088006180800059
:10494400f0632000808f500009003e00800c20009e
:10495400100798006180800069004700811f78007b
:10496400f1072900811f78008af10700e4875700c6
:104974006180800000962000808f5000090036007e
:10498400800c2000100798006180800069004700b7
:10499400811f7800f1082900811f78007df107004c
:1049a400e4875700608080008000eb002e019000b7
:1049b400be01900002004000838048002007980058
:1049c4003107980020b4210001002000ee130700f5
:1049d4000e4890000040e800004f98008e48900078
:1049e400f0c3b30080cf5000d2ff34002e009000fb
:1049f400be0090004a09dd004600de0000007100a0
:104a0400c608de0000007800608088006000b800fe
:104a140020079800310798000040eb00004f9800f1
:104a24002a003700e0808000908088009180800018
:104a3400f0632000808f500009003e00800c2000ad
:104a4400100798009180800069004700811f78005a
:104a5400f1092900811f78004ef10700e48757000f
:104a64009180800000962000808f5000090036005d
:104a7400800c200010079800918080006900470096
:104a8400811f7800f10a2900811f780041f1070095
:104a9400e4875700908080008000eb002e01900096
:104aa400be01900002004000838048002007980067
:104ab4003107980020b4210001002000b213070040
:104ac4000e4890000040e800004f98008e48900087
:104ad400f0c3b30080cf5000d2ff34002e0090000a
:104ae400be0090004a09dd004600de0000007100af
:104af400c608de0000007800908088006000b800de
:104b040020079800310798000040eb00004f980000
:104b14002a003700d0808000c0808800c1808000d7
:104b2400f0632000808f500009003e00800c2000bc
:104b340010079800c180800069004700811f780039
:104b4400f10b2900811f780012f10700e487570058
:104b5400c180800000962000808f5000090036003c
:104b6400800c200010079800c18080006900470075
:104b7400811f7800f10c2900811f780005f10700de
:104b8400e4875700c08080008000eb002e01900075
:104b9400be01900002004000838048002007980076
:104ba4003107980020b4210001002000761307008b
:104bb4000e4890000040e800004f98008e48900096
:104bc400f0c3b30080cf5000d2ff34002e00900019
:104bd400be0090004a09dd004600de0000007100be
:104be400c608de0000007800c08088001e00900027
:104bf4000000e00038023a00e0c0b300205f9800f3
:104c04004a023700e0202100104078000004e00050
:104c14003302320010c0b300205f98004302370013
:104c24002e5890009e40780080cf50000c00320037
:104c3400ae589000014f780000c8b3008a110700f5
:104c4400f00d29005e11070000ccb30086110700a7
:104c5400b00721005a1107000000eb00100798006c
:104c6400c0c8b30080110700f0808000801f780066
:104c7400c00e2900801f780000172100c5f007002e
:104c8400e4875700001721004d110700d0202100b0
:104c9400104078000004e0001b003200a0c0b30004
:104ca40001f0b700f08080004080880060808000c0
:104cb400012020008080400040808000808f5000d0
:104cc4000e003600800c20001007980060808000e1
:104cd400022020000001410041808000690047005b
:104ce400821f7800811f7800010f2900811f78003e
:104cf400a8f00700e68757000c023700f0c0b300a5
:104d0400205f980009023700e0202100104078005d
:104d14000004e000f4013200b0c0b300205f98004a
:104d2400020237002e5890009e40780080cf500039
:104d34000c0032002e599000024f780000c8b300d6
:104d440049110700f00f29001d11070000ccb30022
:104d540045110700b0072100191107000000eb00fe
:104d640010079800c0c8b3003f110700f08080000e
:104d7400801f7800c00e2900801f780000172100d2
:104d840084f00700e4875700001721000c11070086
:104d9400d0202100104078000004e0001b00320005
:104da400a0c0b30001f0b700f080800050808800fc
:104db4006080800001e02f008080400050808000ef
:104dc400808f50000e003100800c200010079800e6
:104dd4006080800002e02f000001410051808000cb
:104de40069004700821f7800811f7800c1102900e4
:104df400811f780067f00700e6875700cb01370072
:104e040000c1b300205f9800c8013700e0202100f2
:104e1400104078000004e000b5013200e0c0b300a7
:104e2400205f9800c10137002e5890009e40780002
:104e340080cf50000c003200ae589000014f780033
:104e440000c8b30008110700b0112900dc100700e6
:104e540000ccb30004110700b0072100d8100700ec
:104e64000000eb0010079800c0c8b300fe10070054
:104e740000818000801f7800c00e2900801f780008
:104e84000017210043f00700e487570000172100b2
:104e9400cb100700d0202100104078000004e0006f
:104ea4001b003200a0c0b30001f0b70000818000f5
:104eb4001080880030808000012020008080400025
:104ec40010808000808f50000e003600800c20007f
:104ed400100798003080800002202000000141006b
:104ee4001180800069004700821f7800811f7800cc
:104ef40081122900811f780026f00700e6875700f9
:104f04008a01370010c1b300205f98008701370081
:104f1400e0202100104078000004e0007601320017
:104f2400f0c0b300205f9800800137002e58900035
:104f34009e40780080cf50000c0032002e59900023
:104f4400024f780000c8b300c7100700701329008f
:104f54009b10070000ccb300c3100700b00721006a
:104f6400971007000000eb0010079800c0c8b300ba
:104f7400bd10070000818000801f7800c00e29004a
:104f8400801f78000017210002f00700e487570013
:104f9400001721008a100700d0202100104078005b
:104fa4000004e0001b003200a0c0b30001f0b70011
:104fb40000818000208088003080800001e02f0084
:104fc4008080400020808000808f50000e003100df
:104fd400800c20001007980030808000a2df2f0092
:104fe400000141002180800069004700821f780091
:104ff400811f780041142900811f7800e5ef070024
:10500400e68757004901370020c1b300205f9800ac
:1050140046013700e0202100104078000004e00041
:105024003701320000c1b300205f98003f01370010
:105034002e5890009e40780080cf50000c00320023
:10504400ae589000014f780000c8b30086100700e6
:10505400301529005a10070000ccb3008210070055
:10506400b0072100561007000000eb00100798005d
:10507400c0c8b3007c100700d0808000801f780077
:10508400c00e2900801f780000172100c1ef07001f
:10509400e48757000017210049100700d0202100a1
:1050a400104078000004e0001b003200a0c0b300f0
:1050b40001f0b700d0808000a0808800c08080000c
:1050c4000120200080804000a0808000808f50005c
:1050d4000e003600800c200010079800c08080006d
:1050e4000220200000014100a180800069004700e7
:1050f400821f7800811f780001162900811f780023
:10510400a4ef0700e68757000801370030c1b30059
:10511400205f980005013700e0202100104078004e
:105124000004e000f800320010c1b300205f9800d2
:10513400fe0037002e5890009e40780080cf50002b
:105144000c0032002e599000024f780000c8b300c2
:1051540045100700f01629001910070000ccb30011
:1051640041100700b0072100151007000000eb00f4
:1051740010079800c0c8b3003b100700d08080001f
:10518400801f7800c00e2900801f780000172100be
:1051940080ef0700e487570000172100081007007c
:1051a400d0202100104078000004e0001b003200f1
:1051b400a0c0b30001f0b700d0808000b0808800a8
:1051c400c080800001e02f0080804000b08080001b
:1051d400808f50000e003100800c200010079800d2
:1051e400c080800002e02f0000014100b1808000f7
:1051f40069004700821f7800811f7800c1172900c9
:10520400811f780063ef0700e6875700c700370067
:1052140040c1b300205f9800c4003700e0202100a3
:10522400104078000004e000b900320020c1b3004f
:10523400205f9800bd0037002e5890009e407800f3
:1052440080cf50000c003200ae589000014f78001f
:1052540000c8b30004100700b0182900d80f0700d5
:1052640000ccb30000100700b0072100d40f0700e2
:105274000000eb0010079800c0c8b300fa0f070045
:10528400e0808000801f7800c00e2900801f780015
:10529400001721003fef0700e487570000172100a3
:1052a400c70f0700d0202100104078000004e00060
:1052b4001b003200a0c0b30001f0b700e080800002
:1052c400808088009080800001e02f008080400072
:1052d40080808000808f50000e003100800c200000
:1052e400100798009080800002e02f000001410028
:1052f4008180800069004700821f7800811f780048
:1053040081192900811f780022ef0700e6875700e2
:105314008600370050c1b300205f98008300370037
:10532400e0202100104078000004e0007a00320000
:1053340030c1b300205f98007c0037002e589000e5
:105344009e40780080cf50000c0032002e5990000f
:10535400024f780000c8b300c30f0700701a290079
:10536400970f070000ccb300bf0f0700b007210060
:10537400930f07000000eb0010079800c0c8b300ab
:10538400b90f0700e0808000801f7800c00e29005c
:10539400801f780000172100feee0700e487570005
:1053a40000172100860f0700d0202100104078004c
:1053b4000004e00025003200a0c0b30001f0b700f3
:1053c400e0808000708088009080800001202000b0
:1053d4008080400070808000808f50000e00360076
:1053e400800c20001007980090808000022020008c
:1053f400000141007180800069004700821f78002d
:10540400811f7800511b2900811f7800e1ee0700fd
:10541400e687570045003700d0f407000004e00099
:1054240007003200800c2000100798006900470034
:1054340012012000411c2900c2ee07003b00370086
:1054440010c0b300205f980038003700e02021002e
:10545400104078000004e0003100320040c1b30085
:10546400205f9800310037002e5890009e4078004d
:1054740080cf500002003200ae589000014f7800f7
:1054840010fb070001f0b700e02021001040780075
:105494000004e000240032000170ef008000eb0003
:1054a400100020008ef407008000eb002000200094
:1054b4008bf4070030c0b300205f98001b00370056
